{
  "_format": "hh-sol-artifact-1",
  "contractName": "DeadmanVault",
  "sourceName": "contracts/DeadmanVault.sol",
  "abi": [
    {
      "inputs": [
        {
          "internalType": "address",
          "name": "_heir",
          "type": "address"
        },
        {
          "internalType": "uint256",
          "name": "_timeout",
          "type": "uint256"
        },
        {
          "internalType": "string",
          "name": "_secret",
          "type": "string"
        }
      ],
      "stateMutability": "nonpayable",
      "type": "constructor"
    },
    {
      "inputs": [],
      "name": "getSecret",
      "outputs": [
        {
          "internalType": "string",
          "name": "",
          "type": "string"
        }
      ],
      "stateMutability": "view",
      "type": "function"
    },
    {
      "inputs": [],
      "name": "heir",
      "outputs": [
        {
          "internalType": "address",
          "name": "",
          "type": "address"
        }
      ],
      "stateMutability": "view",
      "type": "function"
    },
    {
      "inputs": [],
      "name": "lastPing",
      "outputs": [
        {
          "internalType": "uint256",
          "name": "",
          "type": "uint256"
        }
      ],
      "stateMutability": "view",
      "type": "function"
    },
    {
      "inputs": [],
      "name": "owner",
      "outputs": [
        {
          "internalType": "address",
          "name": "",
          "type": "address"
        }
      ],
      "stateMutability": "view",
      "type": "function"
    },
    {
      "inputs": [],
      "name": "ping",
      "outputs": [],
      "stateMutability": "nonpayable",
      "type": "function"
    },
    {
      "inputs": [],
      "name": "timeout",
      "outputs": [
        {
          "internalType": "uint256",
          "name": "",
          "type": "uint256"
        }
      ],
      "stateMutability": "view",
      "type": "function"
    }
  ],
  "bytecode": "608060405234801561001057600080fd5b5060405161063738038061063783398101604081905261002f9161008d565b60008054336001600160a01b031991821617909155600180549091166001600160a01b03851617905560038290556004610069828261020b565b505042600255506102c99050565b634e487b7160e01b600052604160045260246000fd5b6000806000606084860312156100a257600080fd5b83516001600160a01b03811681146100b957600080fd5b6020850151604086015191945092506001600160401b038111156100dc57600080fd5b8401601f810186136100ed57600080fd5b80516001600160401b0381111561010657610106610077565b604051601f8201601f19908116603f011681016001600160401b038111828210171561013457610134610077565b60405281815282820160200188101561014c57600080fd5b60005b8281101561016b5760208185018101518383018201520161014f565b506000602083830101528093505050509250925092565b600181811c9082168061019657607f821691505b6020821081036101b657634e487b7160e01b600052602260045260246000fd5b50919050565b601f82111561020657806000526020600020601f840160051c810160208510156101e35750805b601f840160051c820191505b8181101561020357600081556001016101ef565b50505b505050565b81516001600160401b0381111561022457610224610077565b610238816102328454610182565b846101bc565b6020601f82116001811461026c57600083156102545750848201515b600019600385901b1c1916600184901b178455610203565b600084815260208120601f198516915b8281101561029c578785015182556020948501946001909201910161027c565b50848210156102ba5786840151600019600387901b60f8161c191681555b50505050600190811b01905550565b61035f806102d86000396000f3fe608060405234801561001057600080fd5b50600436106100625760003560e01c80632760c57e146100675780635b9fdc30146100835780635c36b1861461009857806370dea79a146100a25780638da5cb5b146100ab57806391f2ebb8146100d6575b600080fd5b61007060025481565b6040519081526020015b60405180910390f35b61008b6100e9565b60405161007a919061027a565b6100a0610224565b005b61007060035481565b6000546100be906001600160a01b031681565b6040516001600160a01b03909116815260200161007a565b6001546100be906001600160a01b031681565b60606003546002546100fb91906102c8565b42116101445760405162461bcd60e51b8152602060048201526013602482015272151a5b595bdd5d081b9bdd081c995858da1959606a1b60448201526064015b60405180910390fd5b6001546001600160a01b031633146101945760405162461bcd60e51b81526020600482015260136024820152724f6e6c7920686569722063616e20636c61696d60681b604482015260640161013b565b600480546101a1906102ef565b80601f01602080910402602001604051908101604052809291908181526020018280546101cd906102ef565b801561021a5780601f106101ef5761010080835404028352916020019161021a565b820191906000526020600020905b8154815290600101906020018083116101fd57829003601f168201915b5050505050905090565b6000546001600160a01b031633146102745760405162461bcd60e51b81526020600482015260136024820152724f6e6c79206f776e65722063616e2070696e6760681b604482015260640161013b565b42600255565b602081526000825180602084015260005b818110156102a8576020818601810151604086840101520161028b565b506000604082850101526040601f19601f83011684010191505092915050565b808201808211156102e957634e487b7160e01b600052601160045260246000fd5b92915050565b600181811c9082168061030357607f821691505b60208210810361032357634e487b7160e01b600052602260045260246000fd5b5091905056fea264697066735822122093099c9b0165e7676718c7ef943a7b7e25f989873442c72711e89d30ff3c32b064736f6c634300081c0033",
  "linkReferences": {},
  "deployedLinkReferences": {}
}